:100000000C94B8000C9414070C94ED060C94E000CA
:100010000C94E0000C94E0000C94E0000C94E000E0
:100020000C94E0000C94E0000C94E0000C94E000D0
:100030000C94E0000C94E0000C94E0000C94E000C0
:100040000C94A3060C94E0000C9471060C944B06DF
:100050000C94E0000C94E0000C94E0000C94E000A0
:100060000C94E0000C94E00008000000BE922449CB
:10007000123EABAAAA2ABECDCCCC4C3E00000080DA
:10008000BEABAAAAAA3E00000000BF000000803F4D
:100090000000000000084178D3BB4387D1133D190D
:1000A0000E3CC3BD4282AD2B3E68EC8276BED98F3A
:1000B000E1A93E4C80EFFFBE01C4FF7F3F0000007E
:1000C000000007634236B79BD8A71A39685618AEA6
:1000D000BAAB558C1D3CB7CC5763BD6DEDFD753E7D
:1000E000F6177231BF000000803FCDCCCC3D0AD75F
:1000F000233C17B7D13877CC2B329595E6241FB126
:100100004F0A0000803FCDCCCC3D6F12833A95BFA3
:10011000D6337D1D9026B3CE010C00002041000097
:10012000C84200401C4620BCBE4CCA1B0E5AAEC57D
:100130009D7400000000250028002B000000000036
:10014000240027002A000404040404040404020216
:100150000202020203030303030301020408102046
:100160004080010204081020010204081020F00859
:1001700011241FBECFEFD8E0DEBFCDBF11E0A0E05D
:10018000B1E0E0E4FAE102C005900D92A435B107B8
:10019000D9F722E0A4E5B1E001C01D92A630B20774
:1001A000E1F710E0C8EBD0E004C02197FE010E9407
:1001B0000F0DC73BD107C9F70E943B070C941E0DDA
:1001C0000C9400008091540190915501A09156012A
:1001D000B09157010196A11DB11D809354019093D8
:1001E0005501A0935601B09357010895AF92BF9265
:1001F000CF92DF92EF92FF920F931F93CF93DF93F3
:100200006C017B018B01040F151FEB015E01AE1821
:10021000BF08C017D10759F06991D601ED91FC9143
:100220000190F081E02DC6010995892B79F7C50170
:10023000DF91CF911F910F91FF90EF90DF90CF90C2
:10024000BF90AF900895FC01538D448D252F30E071
:10025000842F90E0821B930B541710F0CF960895D3
:1002600001970895FC01918D828D981761F0A28D00
:10027000AE0FBF2FB11D5D968C91928D9F5F9F73C6
:10028000928F90E008958FEF9FEF0895FC01918D7C
:10029000828D981731F0828DE80FF11D858D90E0E9
:1002A00008958FEF9FEF0895FC01918D228D892F86
:1002B00090E0805C9F4F821B91098F73992708956E
:1002C00081E691E00E94540121E0892B09F420E0AD
:1002D000822F089580E090E0892B29F00E94600130
:1002E00081110C9400000895FC01A48DA80FB92F72
:1002F000B11DA35ABF4F2C91848D90E001968F734E
:100300009927848FA689B7892C93A089B1898C916C
:10031000837080648C93938D848D981306C00288BB
:10032000F389E02D80818F7D80830895EF92FF9285
:100330000F931F93CF93DF93EC0181E0888F9B8D08
:100340008C8D98131AC0E889F989808185FF15C0C2
:100350009FB7F894EE89FF896083E889F9898081E5
:100360008370806480839FBF81E090E0DF91CF91B4
:100370001F910F91FF90EF900895F62E0B8D10E0D6
:100380000F5F1F4F0F731127E02E8C8D8E110CC045
:100390000FB607FCFACFE889F989808185FFF5CF90
:1003A000CE010E947401F1CFEB8DEC0FFD2FF11DFA
:1003B000E35AFF4FF0829FB7F8940B8FEA89FB89CD
:1003C00080818062CFCFCF93DF93EC01888D88232B
:1003D000B9F0AA89BB89E889F9898C9185FD03C0A8
:1003E000808186FD0DC00FB607FCF7CF8C9185FF8D
:1003F000F2CF808185FFEDCFCE010E947401E9CF5D
:10040000DF91CF910895CF93DF9390E0FC01E65AFE
:10041000FE4F24918A5B9E4FFC0184918823C9F092
:1004200090E0880F991FFC01E45CFE4FA591B49108
:10043000FC01EE5CFE4FC591D49161110DC09FB7D8
:10044000F8948C91209582238C938881282328838B
:100450009FBFDF91CF910895623051F49FB7F89418
:100460003C91822F809583238C93E8812E2BEFCFB4
:100470008FB7F894EC912E2B2C938FBFEACF8E5030
:10048000806480937C0080917A00806480937A00FD
:1004900080917A0086FDFCCF809178009091790060
:1004A00008953FB7F89480915D0190915E01A0910D
:1004B0005F01B091600126B5A89B05C02F3F19F0E0
:1004C0000196A11DB11D3FBFBA2FA92F982F8827D4
:1004D000BC01CD01620F711D811D911D42E0660FAF
:1004E000771F881F991F4A95D1F708950895CF93D4
:1004F000DF93EC0188819981DC01ED91FC91019001
:10050000F081E02D09952A813B81820F931F9B8307
:100510008A83DF91CF910895CF93DF93EC01888197
:100520009981DC01ED91FC910280F381E02D099528
:100530002A813B81820F931F9B838A83DF91CF9116
:1005400008958F929F92AF92BF92CF92DF92EF92D7
:10055000FF920F931F93CF93DF93CDB7DEB76697CC
:100560000FB6F894DEBF0FBECDBF6C018E01095EE1
:100570001F4F78018AE0882E912CA12CB12CCB0141
:10058000BA01A50194010E94ED0C942F852F605DA6
:10059000F80162938F01A901692F782F4115510548
:1005A0006105710561F7A7014E1B5F0BBF01C60115
:1005B0000E948C0266960FB6F894DEBF0FBECDBFC8
:1005C000DF91CF911F910F91FF90EF90DF90CF902F
:1005D000BF90AF909F908F900895EF92FF920F93EE
:1005E0001F93CF93DF93EC017B0162E20E947702BD
:1005F0008701F80161918F01662391F0E6E1F1E056
:10060000F280FF2049F0329681816813F9CF6CE5C2
:10061000CE010E9477026F2DCE010E947702E9CFB2
:1006200062E2CE01DF91CF911F910F91FF90EF9089
:100630000C947702FC012581222339F0F8E02F0287
:1006400090011124820F931F089590E080E0089597
:10065000FB0101900020E9F73197AF01461B570BD2
:100660000C948C022F923F924F925F926F927F92E6
:100670008F929F92AF92BF92CF92DF92EF92FF92B2
:100680000F931F93CF93DF93CDB7DEB76C970FB661
:10069000F894DEBF0FBECDBF8C011B01DC011496A8
:1006A0008C9114978F77863009F474C278F4823075
:1006B000B0F0843008F04CC212964D915C911397C3
:1006C0006D917C91C1010E948C0226C28C3069F12F
:1006D00060F4883009F459C28A3009F43FC267E2F5
:1006E00071E0C1010E942803E5C1803209F4ECC128
:1006F0008034A9F76BE5C1010E947702F8010081FF
:1007000011810115110509F4DAC1B101C8010E9476
:100710003203C8010E941A038C01892B09F4CFC14E
:100720006CE2C1010E947702ECCFF801C080D18059
:10073000E280F380A7019601C701B6010E948A09F1
:100740008111CDCF20E030E0A901C701B6010E94A0
:100750008A09882379F0A7019601C701B6010E9492
:100760001E099B01AC01C701B6010E948A098823BA
:1007700009F4B5CF20E030E0A901C701B6010E941D
:100780008A0987FF08C06DE2C1010E947702F7FA6B
:10079000F094F7F8F09420E836E948E15BE4C7010B
:1007A000B6010E94E20A87FD81C074E1A72EB12C38
:1007B00000E210E0188E1F8AF501E65EFE4F2591DB
:1007C000359145915491C701B6010E94E20A87FD17
:1007D00013C0F501E651FF4F259135914591549194
:1007E000C701B6010E94370B6B017C012F89388D40
:1007F000200F311F388F2F8B1595079534E0A31AE2
:10080000B1088CEFA8168FEFB806B1F655245A94AC
:1008100020E030E0A901C701B6010E94E20A1816E3
:100820000CF04BC02CEA35EC47E257E3C701B601A8
:100830000E948A0918160CF440C0A52DB4E0AB0242
:10084000C0011124912C812CFC01EE5FFE4F3F0171
:100850009C01265E3E4F59013FEF531671F1F301A3
:10086000E80DF91D6591759185919491A701960107
:100870000E94E20A18169CF4F501E80DF91D259175
:10088000359145915491C701B6010E94370B6B0118
:100890007C018F89988D801B910B988F8F8B15957C
:1008A00007955A9494E0891A9108D6CF00E210E097
:1008B00055E0552E188E1F8AABCFC701B6010E9496
:1008C000010A4B015C012B013C0106E080E492E44B
:1008D000AFE0B0E0898F9A8FAB8FBC8F102F0150A3
:1008E0009AE04916510461047104C8F0698D7A8D4B
:1008F0008B8D9C8D2AE030E040E050E00E94ED0CB2
:10090000298F3A8F4B8F5C8FC301B2012AE030E010
:1009100040E050E00E94ED0C29013A01DFCFC50113
:10092000B4010E94300A9B01AC01C701B6010E94CC
:100930001D096B017C01698D7A8D8B8D9C8D0E94C8
:10094000300A9B01AC01C701B6010E94370B2B0195
:100950003C010E94010A6B017C010E94300A9B014C
:10096000AC01C301B2010E941D099B01AC010E94B0
:100970001E090E94010AC60ED71EE81EF91E898DA7
:100980009A8DAB8DBC8DC816D906EA06FB06D8F049
:100990009FEF891A990AA90AB90AAF89B88DAB2BBA
:1009A00039F1BAE08B169104A104B10408F1EF8982
:1009B000F88D3196F88FEF8BC12CD12C7601812CDC
:1009C000912C540183942AE0422E512C612C712CDD
:1009D000C701B601A30192010E94ED0C672B682BA1
:1009E000692B51F4111644F469017A011150F0CFCA
:1009F000C12CD12C7601E7CFB501A401C1010E9421
:100A0000A102112371F14E01F1E18F0E911C012F12
:100A100054019AE0492E512C612C712C015068F040
:100A2000C701B601A30192010E94ED0C605DD401E3
:100A30006E934D0169017A01F1CF812F90E0BC01E5
:100A400060957095F501E81BF90B31978EE2808374
:100A500044275527461B570B6A0D7B1DC1010E9479
:100A60008C02EF89F88DEF2B29F165E6C1010E9418
:100A700077020F89188D17FF07C06DE2C1010E9430
:100A80007702119501951109FE0177969F018AE081
:100A9000E82EF12CC801B7010E94D90C805D829329
:100AA0008B01672BB9F7A9014E1B5F0BBF01C10179
:100AB0000E948C02D10112968D919C9130C06DE5FF
:100AC000C1010E947702F6CF6BE7C1010E94770255
:100AD000F8010081118101151105D1F0D801169698
:100AE0006D917C91C1010E94ED026AE3C1010E94F7
:100AF0007702B101C8010E943203C8010E941A03A3
:100B00008C01892B29F06CE2C1010E947702E3CFAE
:100B10006DE7C1010E947702F101828193816C9699
:100B20000FB6F894DEBF0FBECDBFDF91CF911F91FE
:100B30000F91FF90EF90DF90CF90BF90AF909F907C
:100B40008F907F906F905F904F903F902F9008957F
:100B50006D917C91C1010E94ED02DECFCD90DD90C0
:100B6000ED90FC90B701A601F7FE0BC06DE2C1014C
:100B70000E94770244275527BA014C195D096E0976
:100B80007F09C1010E94A102C7CF4D915D916D9176
:100B90007C91F7CF8C916CE271E0811102C061E32E
:100BA00071E0C1010E942803B7CFCF92DF92EF928C
:100BB000FF920F931F93CF93DF93FC018481982FB3
:100BC0009F7739F480788062848311821082138247
:100BD0001282848185FD0CC0D0E0C0E0CE01DF919F
:100BE000CF911F910F91FF90EF90DF90CF900895DC
:100BF0006115710589F37A016B018F01C081D18183
:100C00002097C1F16E817F816C157D0539F36115E7
:100C1000710529F0C6010E94150D892BF9F2CE014C
:100C20000E941A03EC01ECCFE9012897F701D58364
:100C3000C483209789F2D8011296ED91FC91139705
:100C4000309791F0CE018E1B9F0B23E095958795F1
:100C50002A95E1F785831396DC93CE9312971D8234
:100C60001C82DF82CE82BACFF801D183C083D383C6
:100C7000C283F5CFD70114962D913C91159712960A
:100C80008D919C9108962817390770F681E0D7015D
:100C900018968C93A3CF1F920F920FB60F92112428
:100CA0002F933F934F935F936F937F938F939F9374
:100CB000AF93BF93EF93FF9381E691E00E9474019D
:100CC000FF91EF91BF91AF919F918F917F916F9124
:100CD0005F914F913F912F910F900FBE0F901F90FA
:100CE00018951F920F920FB60F9211242F938F9386
:100CF0009F93EF93FF93E0917101F09172018081D6
:100D0000E0917701F091780182FD1BC09081809184
:100D10007A018F5F8F7320917B01821741F0E09100
:100D20007A01F0E0EF59FE4F958F80937A01FF91A1
:100D3000EF919F918F912F910F900FBE0F901F9069
:100D400018958081F4CF1F920F920FB60F92112445
:100D50002F933F938F939F93AF93BF9380915901AC
:100D600090915A01A0915B01B0915C0130915801C2
:100D700023E0230F2D3758F50196A11DB11D2093B7
:100D800058018093590190935A01A0935B01B0934D
:100D90005C0180915D0190915E01A0915F01B09135
:100DA00060010196A11DB11D80935D0190935E01CC
:100DB000A0935F01B0936001BF91AF919F918F911C
:100DC0003F912F910F900FBE0F901F90189526E81E
:100DD000230F0296A11DB11DD2CF1F920F920FB605
:100DE0000F9211242F933F934F935F936F937F93B1
:100DF0008F939F93AF93BF93EF93FF93E091020183
:100E0000F09103010995FF91EF91BF91AF919F91EF
:100E10008F917F916F915F914F913F912F910F90A3
:100E20000FBE0F901F9018951F920F920FB60F9242
:100E300011242F933F934F935F936F937F938F93DF
:100E40009F93AF93BF93EF93FF93E0910001F091D5
:100E500001010995FF91EF91BF91AF919F918F9102
:100E60007F916F915F914F913F912F910F900FBEA6
:100E70000F901F901895CF93DF93CDB7DEB7C8576B
:100E8000D1090FB6F894DEBF0FBECDBF789484B5FC
:100E9000826084BD84B5816084BD85B5826085BD76
:100EA00085B5816085BD80916E00816080936E0004
:100EB00010928100809181008260809381008091F6
:100EC00081008160809381008091800081608093A7
:100ED00080008091B10084608093B1008091B00067
:100EE00081608093B00080917A00846080937A0062
:100EF00080917A00826080937A0080917A0081608C
:100F000080937A0080917A00806880937A001092B2
:100F1000C100E0917101F091720182E08083E09163
:100F20006D01F0916E011082E0916F01F0917001FE
:100F30008FEC808310927901E0917501F091760138
:100F400086E08083E0917301F0917401808180617B
:100F50008083E0917301F0917401808188608083C7
:100F6000E0917301F0917401808180688083E09149
:100F70007301F091740180818F7D808362E082E053
:100F80000E94030260E081E10E94030260E080E1D0
:100F90000E94030282EE90E0909301018093000191
:100FA00080916900836080936900E89A5E012FE078
:100FB000A20EB11C8E010D581F4F91E6292E91E013
:100FC000392E20E0822E20E0922EBA82A982BC82A5
:100FD000AB821E830D8318870F8319868E858078D8
:100FE0008E8781E10E943F02BC01990F880B990B0B
:100FF0000E94320A9B01AC0160E070EC8FE794E440
:101000000E948F0920E030E040E85FE30E941D0964
:1010100020E030E44CE156E40E94370B0E94EF0AD6
:101020006B017C012CE63FEC48E554E30E94370B52
:10103000A70196010E94370BA70196010E94370B6A
:101040002B013C0126ED34E649E759E3C701B6011F
:101050000E94370B2BEC38E444E85AE30E941E0947
:101060009B01AC01C301B2010E941E099B01AC01AE
:1010700060E070E080E89FE30E948F0923E333E99A
:1010800048E853E40E941D096B017C01C0920202F2
:10109000D0920302E0920402F092050280E10E94E5
:1010A0003F02BC01990F880B990B0E94320A9B01E9
:1010B000AC0160E070EC8FE794E40E948F0920E0BF
:1010C00030E040E85FE30E941D099B01AC0160E055
:1010D00070E48CE196E40E948F099B01AC0160E012
:1010E00079ED88EF97E40E948F0925E23FE245E918
:1010F0005FE30E94A40B2B013C014092FE01509241
:10110000FF016092000270920102AE014F5F5F4FDB
:1011100067E371E0CE010A960E94D505FC01892B98
:1011200041F0948190789C609483408251826282E5
:101130007382AE014F5F5F4F64E471E0CE010A96A7
:101140000E94D505FC01892B41F0948190789C6028
:101150009483C082D182E282F382F80131822082BC
:1011600013821282B801CE010A960E94320342E035
:1011700050E060E571E081E691E00E94F6000E9497
:1011800051026B017C0188EB482E8BE0582E612CBC
:10119000712C0E9451026C197D098E099F09683ECD
:1011A000734081059105A8F3F1E04F1A51086108D9
:1011B000710828EEC20E23E0D21EE11CF11C41147E
:1011C00051046104710429F78114910409F4FDCEDE
:1011D0000E946001882309F4F8CE0E940000F5CE39
:1011E000E1E6F1E01382128288EE93E0A0E0B0E045
:1011F00084839583A683B78388E091E0918380837D
:1012000085EC90E09587848784EC90E097878687CB
:1012100080EC90E0918B808B81EC90E0938B828BC3
:1012200082EC90E0958B848B86EC90E0978B868B9C
:10123000118E128E138E148E08955058BB27AA2734
:101240000E9435090C94A80A0E949A0A38F00E945C
:10125000A10A20F039F49F3F19F426F40C94970A60
:101260000EF4E095E7FB0C94910AE92F0E94B90A6D
:1012700058F3BA17620773078407950720F079F4CB
:10128000A6F50C94DB0A0EF4E0950B2EBA2FA02DD8
:101290000B01B90190010C01CA01A0011124FF2723
:1012A000591B99F0593F50F4503E68F11A16F0401E
:1012B000A22F232F342F4427585FF3CF469537951D
:1012C0002795A795F0405395C9F77EF41F16BA0BE2
:1012D000620B730B840BBAF09150A1F0FF0FBB1F90
:1012E000661F771F881FC2F70EC0BA0F621F731FD9
:1012F000841F48F4879577956795B795F7959E3F36
:1013000008F0B0CF9395880F08F09927EE0F9795C6
:10131000879508950E946D0A08F481E008950E945F
:10132000A3090C94A80A0E94A10A58F00E949A0AE4
:1013300040F029F45F3F29F00C94910A51110C946C
:10134000DC0A0C94970A0E94B90A68F39923B1F356
:10135000552391F3951B550BBB27AA2762177307DB
:10136000840738F09F5F5F4F220F331F441FAA1F6F
:10137000A9F335D00E2E3AF0E0E832D0915050402B
:10138000E695001CCAF72BD0FE2F29D0660F771FD9
:10139000881FBB1F261737074807AB07B0E809F0BF
:1013A000BB0B802DBF01FF2793585F4F3AF09E3F44
:1013B000510578F00C94910A0C94DC0A5F3FE4F339
:1013C000983ED4F3869577956795B795F7959F5F87
:1013D000C9F7880F911D9695879597F90895E1E0D3
:1013E000660F771F881FBB1F621773078407BA0732
:1013F00020F0621B730B840BBA0BEE1F88F7E0958D
:1014000008950E94C10A88F09F5798F0B92F992734
:10141000B751B0F0E1F0660F771F881F991F1AF0DF
:10142000BA95C9F714C0B13091F00E94DB0AB1E05F
:1014300008950C94DB0A672F782F8827B85F39F05E
:10144000B93FCCF3869577956795B395D9F73EF478
:1014500090958095709561957F4F8F4F9F4F089520
:10146000E89409C097FB3EF490958095709561953E
:101470007F4F8F4F9F4F9923A9F0F92F96E9BB27F4
:101480009395F695879577956795B795F111F8CF70
:10149000FAF4BB0F11F460FF1BC06F5F7F4F8F4FDB
:1014A0009F4F16C0882311F096E911C0772321F0D1
:1014B0009EE8872F762F05C0662371F096E8862F69
:1014C00070E060E02AF09A95660F771F881FDAF7C0
:1014D000880F9695879597F90895990F0008550FED
:1014E000AA0BE0E8FEEF16161706E807F907C0F0AA
:1014F00012161306E407F50798F0621B730B840BB2
:10150000950B39F40A2661F0232B242B252B21F48B
:1015100008950A2609F4A140A6958FEF811D811D2B
:10152000089597F99F6780E870E060E008959FEF65
:1015300080EC089500240A9416161706180609066A
:10154000089500240A941216130614060506089539
:10155000092E0394000C11F4882352F0BB0F40F4C1
:10156000BF2B11F460FF04C06F5F7F4F8F4F9F4F01
:10157000089557FD9058440F551F59F05F3F71F083
:101580004795880F97FB991F61F09F3F79F08795EA
:101590000895121613061406551FF2CF4695F1DF73
:1015A00008C0161617061806991FF1CF8695710503
:1015B000610508940895E894BB2766277727CB0137
:1015C00097F908950E946D0A08F48FEF089516F0B8
:1015D0000C942E0C0C94970A68940C94910A0E9417
:1015E000C10AA8F39923C1F3AEF3DF93CF931F93FE
:1015F0000F93FF92C92FDD2788232AF02197660FCA
:10160000771F881FDAF720E030E040E85FEB9FE3C8
:10161000883920F0803E38F021968F770E941E098D
:10162000E8E6F0E004C00E941E09E5E9F0E00E944F
:101630003C0C8B01BE01EC01FB2E6F5771097595B7
:10164000771F880B990B0E94320A28E132E741E3A9
:101650005FE30E944A0BAF2D9801AE01FF900F91FE
:101660001F91CF91DF910E9435090C94A80A0E9426
:101670004A0B0C94A80A0E949A0A38F00E94A10A08
:1016800020F0952311F00C94910A0C94970A1124E0
:101690000C94DC0A0E94B90A70F3959FC1F3950F70
:1016A00050E0551F629FF001729FBB27F00DB11DE6
:1016B000639FAA27F00DB11DAA1F649F6627B00D76
:1016C000A11D661F829F2227B00DA11D621F739F5F
:1016D000B00DA11D621F839FA00D611D221F749F6D
:1016E0003327A00D611D231F849F600D211D822FB4
:1016F000762F6A2F11249F5750409AF0F1F08823DB
:101700004AF0EE0FFF1FBB1F661F771F881F915007
:101710005040A9F79E3F510580F00C94910A0C941B
:10172000DC0A5F3FE4F3983ED4F38695779567959E
:10173000B795F795E7959F5FC1F7FE2B880F911D31
:101740009695879597F90895FA01EE0FFF1F309649
:1017500021053105A1F16115710561F48038BFE300
:101760009B0749F168949038810561F08038BFEF9C
:101770009B0741F099234AF5FF3FE105310521051B
:1017800019F1E8940894E795D901AA2329F4AB2F1D
:10179000BE2FF85FD0F310C0FF5F70F4A695E0F79E
:1017A000F73950F019F0FF3A38F49F779F930DD036
:1017B0000F9007FC9058089546F00C94970A60E04B
:1017C00070E080E89FE308954FE79F775F934F9322
:1017D0003F932F930E94EF0A2F913F914F915F917A
:1017E0000E94370B0C94FC0B29F416F00C94910A10
:1017F0000C94DB0A0C94970A0E94C10AA8F396384D
:10180000A0F707F80F92E8942BE33AEA48EB5FE77A
:101810000E944D0B0F920F920F924DB75EB70F9231
:101820000E94A50CE2ECF0E00E943C0C4F915F910D
:10183000EF91FF91E595EE1FFF1F49F0FE57E0681D
:101840004427EE0F441FFA95E1F74195550B0E948E
:101850006F0C0F9007FE0C94630C08959F3F31F0BE
:10186000915020F4879577956795B795880F911DCE
:101870009695879597F90895DF93CF931F930F93CC
:10188000FF92EF92DF927B018C01689406C0DA2E02
:10189000EF010E944A0BFE01E894A5912591359134
:1018A00045915591A6F3EF010E943509FE0197017C
:1018B000A801DA9469F7DF90EF90FF900F911F91E4
:1018C000CF91DF9108959B01AC0160E070E080E86A
:1018D0009FE30C948F090C94910A0C942E0C0E9497
:1018E000C10AD8F39923C9F3940F511DA3F3915062
:1018F000504094F059F0882332F0660F771F881F0C
:1019000091505040C1F79E3F51052CF7880F911D13
:101910009695879597F908955F3FACF0983E9CF0B7
:10192000BB27869577956795B79508F4B160939531
:10193000C1F7BB0F58F711F460FFE8CF6F5F7F4F1F
:101940008F4F9F4FE3CF0C94DC0AFA01DC01AA0F02
:10195000BB1F9B01AC01BF5728F422273327442724
:10196000507820C0B75190F4AB2F0024469537959E
:101970002795011CA395D2F3002071F0220F331F8D
:10198000441FB395DAF30ED00C941D096130710534
:10199000A0E88A07B94630F49B01AC016627772797
:1019A00088279078309621F02083318342835383B7
:1019B0000895AA1BBB1B51E107C0AA1FBB1FA61796
:1019C000B70710F0A61BB70B881F991F5A95A9F7E8
:1019D00080959095BC01CD010895A1E21A2EAA1B15
:1019E000BB1BFD010DC0AA1FBB1FEE1FFF1FA217CF
:1019F000B307E407F50720F0A21BB30BE40BF50BCC
:101A0000661F771F881F991F1A9469F76095709554
:101A1000809590959B01AC01BD01CF010895EE0F1B
:101A2000FF1F0590F491E02D0994FB01DC018D91DD
:101A3000019080190110D9F3990B0895F894FFCF04
:101A400076027602000000009601F6002301E30111
:101A50005401320146012F2F22225C5C6208660C81
:101A60006E0A720D7409006E756C6C007472756587
:101A70000066616C7365004C756D696E6F736964A7
:101A80006164650054656D706572617475726100A2
:041A90000D0A00003B
:00000001FF
